:100000000C9469030C94E3250C94A1030C94A103B4
:100010000C94A1030C94A1030C94A1030C94A103D0
:100020000C94A1030C94A1030C94232D0C94F72D94
:100030000C9424280C94A1030C94A1030C94A10308
:100040000C94A1030C94A1030C94A1030C94A103A0
:100050000C94A1030C94C7280C94A1030C94A10345
:100060000C94A1030C94A1030C94A1030C94A10380
:100070000C94A1030C94A1030C94A1030C94A10370
:100080000C94A1030C94A1030C94A1030C94A10360
:100090000C94A1030C94A1030C94A1030C94A10350
:1000A0000C94A1030C94A1030C94A1030000140070
:1000B0001A00080015001700292204001600070086
:1000C00009000A0000001D001B00060019000500C1
:1000D000000000000000E30023522C00010001009A
:1000E00001000100010001001C0018000C001200BA
:1000F000130000000B000D000E000F00330028213C
:100100001100100036003700380000002A32245257
:10011000E2000000000000000100010001000100F9
:10012000010001002B0014001A00090013000A004E
:10013000290004001500160017000700E1001D004B
:100140001B000600190005002552E000E200E30054
:1001500023522C00010001000100010001000100F8
:100160000D000F0018001C0033002A000B001100C6
:1001700008000C00120034000E001000360037009A
:10018000380028002C0024525000510052004F002B
:100190000100010001000100010001002B003400FA
:1001A0003600370013001C0029000400120008006C
:1001B00018000C00E100330014000D000E001B00BD
:1001C0002552E000E200E30023522C000100010070
:1001D000010001000100010009000A0006001500ED
:1001E0000F002A0007000B0017001100160038004E
:1001F000050010001A0019001D0028002C00010045
:100200005000510052004F000100010001000100A8
:1002100001000100010035003502240234022502EC
:1002200001001E021F0220023400330001003100D1
:10023000310223022102220201000100010001001B
:100240002552010001000100010001000100010030
:1002500036022F022E003002370201002F00260244
:1002600033022702300001002D02560057005500CE
:1002700054000100010025520100010001000100AD
:100280000100010001000100010001000100E00087
:10029000E200E300E1000100010059005A005B00A8
:1002A0005C005D0001005E005F00600061006200B4
:1002B00001000100010001002552010001000100C0
:1002C00001000100010001004A004E004B004D00FA
:1002D000290001005000510052004F002A00010087
:1002E0002B020D060E062B006300010001002552B3
:1002F00001000100010001000100010001000100F6
:1003000001000100007C3A003B003C003D004252ED
:1003100001003E003F004000410041520100420008
:10032000430044004500405201000100010001006B
:1003300001000100010001000100010001000100B5
:1003400080748174157014704C000100207823783B
:10035000257827782978010021782478267828784C
:100360002A780100010001000100010001000100E4
:100370000100010001000100010001001E0F050045
:10038000047F3F1F643214643214783C1E1E140A2A
:10039000052223252628292A2C2D2F3032333536C5
:1003A000383A3B3D3E4042434547494A4C4E505106
:1003B000535557595A5C5E6062646668696B6D6F2D
:1003C00071737577797B7D7F81838587898A8C8E30
:1003D00090929496989A9C9E9FA1A3A5A7A8AAAC38
:1003E000AEAFB1B3B4B6B8B9BBBCBEBFC1C2C3C572
:1003F000C6C7C9CACBCCCDCED0D1D2D2D3D4D5D614
:10040000D7D7D8D9D9DADADBDBDBDCDCDCDCDCDD46
:10041000DDDDDDDCDCDCDCDCDBDBDBDADAD9D9D82A
:10042000D7D7D6D5D4D3D2D2D1D0CECDCCCBCAC9C2
:10043000C7C6C5C3C2C1BFBEBCBBB9B8B6B4B3B1F1
:10044000AFAEACAAA8A7A5A3A19F9E9C9A9896948C
:1004500092908E8C8A89878583817F7D7B79777561
:1004600073716F6D6B6968666462605E5C5A595740
:10047000555351504E4C4A4947454342403E3D3BFF
:100480003A3836353332302F2D2C2A292826252389
:1004900022FFAA7F55400001010101010101010174
:1004A0000202020202020202020303030303030325
:1004B00003040404040404040505050505060606F2
:1004C0000606070707070708080808090909090AAF
:1004D0000A0A0B0B0B0C0C0C0D0D0D0E0E0E0F0F54
:1004E0000F101011111112121313141415151616E2
:1004F0001717181819191A1A1B1B1C1D1D1E1E1F51
:100500002020212222232424252626272829292A9F
:100510002B2C2D2D2E2F30313232333435363738C7
:10052000393A3B3C3D3E3F404142434445464748C3
:10053000494A4C4D4E4F50515354555658595A5B99
:100540005D5E5F616264656668696B6C6D6F707239
:10055000737577787A7B7D7E8082838587888A8CA5
:100560008E8F91939596989A9C9EA0A2A3A5A7A9D9
:10057000ABADAFB1B3B5B7BABCBEC0C2C4C6C9CBD0
:10058000CDCFD1D4D6D8DBDDDFE2E4E7E9EBEEF086
:10059000F3F5F8FAFDFF1E034E00790071007500B7
:1005A00069007300740020005200650076002E0080
:1005B0002000330000000E034B0065006500620060
:1005C00069006F0000000403090409023B000201F6
:1005D00000A0FA0904000001030101000921110132
:1005E0000001224000070581030800010904010001
:1005F0000103000000092111010001227B00070511
:100600008203200001120100020000000810CB56F6
:100610003100030102000105010902A1018502095F
:1006200001A1000509190129081500250195087582
:100630000181020501093009311581257F95027577
:1006400008810609381581257F9501750881060501
:100650000C0A38021581257F950175088106C0C0F6
:1006600005010980A101850319012AB7001501269A
:10067000B700950175108100C0050C0901A1018525
:100680000419012AA002150126A002950175108106
:1006900000C005010906A101050719E029E71500B9
:1006A00025019508750181029501750881010507ED
:1006B000190029FF150026FF009506750881000521
:1006C0000819012905950575019102950175039198
:1006D00001C011241FBECFEFDAE0DEBFCDBF04B6EC
:1006E00003FE18C08091860390918703A091880330
:1006F000B09189038730904BA740B04B59F41092CA
:100700008603109287031092880310928903E0E019
:10071000F8E3099511E0A0E0B1E0ECE9F3E602C0EE
:1007200005900D92AE3FB107D9F723E0AEEFB1E0EF
:1007300001C01D92A638B207E1F70E94A0160C94E2
:1007400078310C9400000E94EC2185E00E945F2229
:100750000E94961F4FEF6FEF80E00E94F81B8BE026
:100760000E94921F60E070E0CB010E94620E0E9426
:10077000700E08958630B8F46A30A8F4463098F4C4
:1007800050E096E0699F400D511D1124FA019CE351
:10079000899FE00DF11D1124EE0FFF1FE455FF4F5F
:1007A00085919491089581E090E008950E94BA03A4
:1007B000089581E0089581E008950E94DB03089583
:1007C00008950E94E0030895A5E0B0E0EAEEF3E0AA
:1007D0000C946A3049835A833091050289819A8149
:1007E000311119C0662399F0222389F00E94020A70
:1007F000182F682F89819A810E94DE0969817A8188
:10080000812F0E94D4102596E3E00C9486300E943C
:10081000F009182FF3CF0E94020A69817A81F1CF83
:10082000FC01262F408151816281738184810E9465
:10083000E403089581E00895CF93DF93EC0160E035
:100840000E941004BE010E94E103DF91CF91089540
:1008500008950E94AD080E9428042FEF84E39CE0D5
:10086000215080409040E1F700C0000008950E94B0
:1008700029040E94EB2808950E9429040E940F2950
:1008800008950F931F93CF93DF938C0161E00E9433
:100890001004EC01B8010E94DD03811106C080E064
:1008A000DF91CF911F910F910895B801CE010E9461
:1008B00066228823A1F3B801CE010E940125882376
:1008C00071F3B801CE010E949723882341F3B80148
:1008D000CE010E947324882311F3B801CE010E9437
:1008E00002218823E1F2F8018281882361F0C3307C
:1008F000FCE7DF07E9F058F4C115ECE7DE07A9F0E3
:10090000C130DC47B9F0C8010E94D903C9CFCB354B
:100910008CE7D807A9F0CC35ECE7DE0771F0CA35D3
:10092000DC4789F70E94330EEECF0E943704B7CF21
:100930000E943B0E0E943C04B2CF0E94290EE3CFDE
:100940000E94370EE0CF0E94012880E00E949B2287
:100950000E94CF0408950E9492210E94D3040E9415
:1009600006280895089581E008950895CF93DF93B0
:10097000D82F0E94B304C82F882319F08D2F0E940E
:10098000B5048C2FDF91CF9108950895CF93C82F90
:100990000E94B2048C2F0E94B604CF91089580E08B
:1009A0000E94C60408950E9409270E94C604089563
:1009B000CF930E940927C82F809100028C1779F0ED
:1009C000C09300020E94902860930102709302027B
:1009D00080930302909304028C2F0E94C604CF914F
:1009E0000895ABE0B0E0E7EFF4E00C946B304F8398
:1009F000588769877A878B8761110E94740D1E82E0
:100A00001D8285E0FE013796DE01119601900D9260
:100A10008A95E1F78C819D81892B61F449815A8106
:100A20006B817C818D819E810E949C0C2B96E2E0E3
:100A30000C94873089819A8189238F3F79F3CE0185
:100A400001960E941A048111E9CFF0CFFC01808148
:100A500091810E94340A0895662329F00E94241788
:100A60000E94F71708950E947E17FACFCF93C82FE0
:100A70008823C9F08238C9F40E94092781FD13C078
:100A800089E30E942C0D0E94950D2FEF87EE93E0D5
:100A9000215080409040E1F700C0000089E30E94AF
:100AA000340D0E94950DCF9108958338A1F40E94D2
:100AB000092780FDF8CF83E50E942C0D0E94950D3B
:100AC0002FEF81EE94E0215080409040E1F700C08C
:100AD000000083E5E4CF8438A1F40E94092782FD59
:100AE000E2CF87E40E942C0D0E94950D2FEF81EE3E
:100AF00094E0215080409040E1F700C0000087E47E
:100B0000CECF8CEF8C0F813A90F46C2F8091040142
:100B1000909105010E949227882329F08C2F0E9432
:100B2000340D0E94950D8C2F0E942C0DBACF80E2BF
:100B30008C0F883048F4C77081E001C0880FCA95D7
:100B4000EAF70E94570DADCFEBE5EC0FE33040F430
:100B5000F0E0E757FE4F808190E00E943627A3CF58
:100B6000E8E5EC0FEB3150F4F0E0EE0FFF1FED5A2B
:100B7000FE4F808191810E945B2795CF83E38C0F8C
:100B8000833108F090CF61E08C2F0E942C058BCF31
:100B9000882309F456C0823879F40E94092781FF1E
:100BA00050C089E30E942C0D0E94950D89E30E949C
:100BB000340D0E94950D0895833859F40E94092739
:100BC00080FF3FC083E50E942C0D0E94950D83E5B8
:100BD000EECF843859F40E94092782FF32C087E49F
:100BE0000E942C0D0E94950D87E4E1CF9CEF980F99
:100BF000913AE8F290E2980F983050F4877091E0C3
:100C000001C0990F8A95EAF7892F0E945D0DD1CF17
:100C10009BE5980F933028F490E080E00E943627FF
:100C2000089598E5980F9B3128F490E080E00E94A9
:100C30005B27089593E3980F933118F460E00E94C6
:100C40002C0508951F93CF93DF93182FEB010E947B
:100C50003605209739F4812F0E94C805DF91CF9186
:100C60001F9108958FE99FE00197F1F700C0000000
:100C70002197EFCF70E060E0893311F460E570E018
:100C80000E9422060895882321F00E94570D0E9499
:100C9000950D0895882321F00E945D0D0E94950D09
:100CA0000895B0E0A0E0E7E5F6E00C9464306C0154
:100CB000D62FC72FFC011281058102950F700E946B
:100CC0004D0DE82E8823E9F0E12E1123D1F08C2F71
:100CD000807F803451F080E28D0F8830F8F0011170
:100CE00004C08C2F807E8032C9F08091340382FF53
:100CF00015C082E00E94F80D0E944D0D91E0E82E93
:100D0000E926BC2EB2949FE0B922FBE0FB15B8F1B6
:100D1000EB2DF0E0E658FE4C0C942430E12CF1CFA2
:100D20000C2F0F70C07F11F00295007F112399F0F6
:100D3000002359F080E28D0F883010F0D11107C0E8
:100D4000802F0E94570D0E94950D8D2F63C0802F1C
:100D50000E94670DF8CF8D2F0E94C805002379F0FF
:100D600080E28D0F883010F0D11104C0802F0E94D6
:100D70005D0D03C0802F0E946D0D0E94950D2B2DDF
:100D80002850330B2430310520F40E9409270E949B
:100D9000C604EE2089F00E94490D80FD0DC0F601C9
:100DA00012820E94430D0E943C09C6010E946D08F8
:100DB0000E94430D0E944C09CDB7DEB7E9E00C94C8
:100DC00080302C2F2F70F22EC07FC03219F0F29499
:100DD00080EFF822DD2381F0D13009F449C01123DE
:100DE00009F451C0002309F448C0F601858180FF51
:100DF000ACCF8F70858341C08091340382FD15C0D4
:100E0000112359F0FF2029F08F2D0E94570D0E94C9
:100E1000950D80E00E943605B2CF80E00E94C805A3
:100E2000FF2009F4ACCF8F2DA2CF112381F0011147
:100E300006C00E94770D8F290E944306A0CF013083
:100E4000C1F70E94770D8F290E947E0D98CF011166
:100E500006C00E948B0D8F2D0E944A0690CF013054
:100E600009F48DCF8F2D0E944A060E948B0D87CFEB
:100E7000112329F0063008F082CF8F2DDDCF053009
:100E800008F07DCFE8CF002331F3D93349F4FFEFE9
:100E900027EE33E0F15020403040E1F700C0000081
:100EA0008D2F0E94C8056BCF8C2F869586958370F9
:100EB00069F0813009F063CF8D2F9C2F9370111151
:100EC00002C080E090E00E945B2759CF8D2F9C2FBD
:100ED0009370111102C080E090E00E9436274FCF3E
:100EE000612F8D2F0E942C054ACF8C2F8370A1F586
:100EF000111145CF4D2F429546954770440F440F31
:100F00002D2F2F7030E0042E02C0220F331F0A94C1
:100F1000E2F790E080E0D4FF09C08FE090E002C0EB
:100F2000880F991F4A95E2F780959095C695C695CA
:100F3000C370822B932BC23049F058F4C13019F0A2
:100F40000E940C091CCF0E94030919CF0E941509A9
:100F500016CF0E94000913CF8695112311F08C2F14
:100F60008170882309F40BCF4D2F42954695477029
:100F7000440F440F2D2F2F7030E0042E02C0220F9B
:100F8000331F0A94E2F790E080E0D4FF09C08FE0BD
:100F900090E002C0880F991F4A95E2F780959095DE
:100FA000C695C695C370822B932BC23049F058F476
:100FB000C13019F00E947709E2CE0E946E09DFCE9F
:100FC0000E948009DCCE0E942409D9CECF70112363
:100FD00029F08C2F0E943C098D2F2ECF8D2F0E943F
:100FE0004A068C2F0E944C09CACED23F41F160F4D0
:100FF000D03FB9F0D13F81F0112309F446C001116F
:10100000A4CE8C2F8F711FC0D33F01F1D43FA1F725
:101010008091340382FD24C08C2F8F71112311F332
:1010200012C0112341F0053008F0A9CE8C2F8F712A
:101030000E945E09A4CE063008F0A1CEF7CF8C2F17
:101040008F711111CFCF0E943C0999CE112329F045
:101050008C2F8F710E94300992CE0E942B098FCE67
:10106000112349F0CF718C2F0E943C0963E08C2F33
:101070000E94DA0D84CE81E00E94F80D023008F45F
:101080007ECE82E00E94F80D7ACE002359F0D9334B
:1010900009F006CF8FEF97EEE3E081509040E040FB
:1010A000E1F7FCCE8C2F8F719DCF0F931F93CF93C1
:1010B000DF93EC01688179818A810E943F0A8C016B
:1010C0000E9489090E94FF08B801CE010E945106C2
:1010D000DF91CF911F910F910895CF93DF93EC0192
:1010E0008B819C81892B29F08881998189238F3F6D
:1010F00051F4DF91CF910895CE010E945508CE01A1
:101100000E941C04F6CFCE010E9441048111F4CF4D
:101110000E944D0D882369F38A81882351F38091C1
:10112000340382FFE6CF82E00E94F80DE2CF90E028
:1011300080E00E94362790E080E00E945B270E94BA
:10114000740D0E94950D0E9413180E94F7170895C0
:101150000E943C0D0E94970808950E94640D0E9411
:10116000A808089592959F70963091F058F4925F78
:101170009F70923058F4803F19F030F4883E30F47C
:1011800081E008959A5FF4CF843FD1F380E0089521
:10119000883EB0F3813FD1F7F3CFFC018381948186
:1011A000892B29F08081918189238F3F11F480E080
:1011B0000895808191810E94340A0E94B2080895A6
:1011C000A5E0B0E0E6EEF8E00C946B302596E2E0A6
:1011D0000C948730A6E0B0E0E0EFF8E00C946B30C0
:1011E0002696E2E00C94873008950E94F408089552
:1011F0000E94F5089093290280932802089508958B
:101200000E94F80808952091280230912902822B2B
:10121000932B0E94F808089520912802309129020A
:10122000822393230E94F808089520912802309188
:101230002902822793270E94F80808950E94F40843
:1012400008950E941E0908950E9421099093270283
:1012500080932602089590E080E00E94240908957A
:1012600021E030E0A90102C0440F551F8A95E2F742
:10127000CA010E942409089521E030E002C0220F33
:10128000331F8A95E2F78091260290912702822BE4
:10129000932B0E942409089521E030E002C0220F20
:1012A000331F8A95E2F72095309580912602909120
:1012B0002702822393230E942409089521E030E02D
:1012C00002C0220F331F8A95E2F780912602909187
:1012D0002702822793270E9424090895209126023D
:1012E00030912702822B932B0E942409089520918C
:1012F000260230912702822393230E942409089515
:101300002091260230912702822793270E942409E8
:1013100008950895262F277091E001C0990F2A950E
:10132000EAF723E0769567952A95E1F7660F771F30
:10133000660F771FFA01E60FF71F50E040E0682FB5
:1013400070E08191DF0111979B01042E02C0369558
:1013500027950A94E2F72170219528272923282729
:101360002C934F5F5F4F4430510559F70895A82FD4
:10137000A77023E0969587952A95E1F7880F991F26
:10138000880F991FFB01E80FF91F50E040E080E053
:10139000219130E00A2E02C0369527950A94E2F793
:1013A00021703327042E01C0220F0A94EAF7822B02
:1013B0004F5F5F4F4430510559F70895262F9A30FB
:1013C00070F4863060F4682F70E086E0989F600DBE
:1013D000711D112446E052E0822F0E948A0908956F
:1013E000292F9A3068F4863058F490E066E072E075
:1013F00036E0239F800D911D11240E94B7090895A6
:1014000080E00895B0E0A0E0E8E0FAE00C946430F9
:101410007C01009126021091270280912802909170
:101420002902082B192BCFE0D0E0CC24C394D12C77
:10143000BC2EC6010C2E02C0880F991F0A94E2F739
:1014400080239123892B49F4219790F7B12C8B2D80
:10145000CDB7DEB7E9E00C948030B7018C2F0E9445
:10146000E010019789F3F3CFCF93DF93EC010E9453
:10147000020ABE010E94E010DF91CF9108951F93F0
:10148000CF93DF93EB0190910502992339F0CB01C3
:101490000E94340ADF91CF911F910895882369F04B
:1014A000CB010E94020A182F682FCE010E94DE098C
:1014B000BE01812F0E94E010EDCFCB010E94F00908
:1014C000182FF6CF1F93CF93DF93C0912A0216E017
:1014D00080912B028C1304C0DF91CF911F9108954E
:1014E000D0E01C9FF0011D9FF00D1124E45DFD4F25
:1014F0004081518162817381848195810E94EA08D3
:101500002196C770E5CF40915C0250915D026091D9
:101510005E0270915F0280916002909161020E9470
:10152000EA08089520912A0290912B0256E029138F
:1015300002C080E0089530E0529FF001539FF00D0B
:101540001124E45DFD4F7181761306C0708178131C
:1015500003C07281741304C02F5F3F4F2770E7CF21
:1015600081E008951F93CF93DF9380916102807F84
:1015700009F04BC080915E02882309F446C0809137
:101580002A02C0912B0240915C0250915D02609151
:101590005F0270916002D42FD52316E0C817A9F11D
:1015A00090E061157105A9F1DF3F99F1189FF001F5
:1015B000199FF00D1124DF01A45DBD4F11962C91F0
:1015C0001197251326C02C91241323C012962C9119
:1015D000129721111EC013962D913C91261B370B9B
:1015E000283C3105B0F4809161028F708061809356
:1015F0006102EF5CFD4F80818F70806180838CE59C
:1016000092E00E946D080E94620ADF91CF911F91C3
:10161000089501968770C2CFA1E1B0E0E2E1FBE05E
:101620000C9461308C0185E0F801DE011D9601907B
:101630000D928A95E1F7F801F2808CE5A82E82E000
:10164000B82E40915F02509160024115510509F496
:101650005AC190915C0220915D02892F82238F3FB5
:1016600009F451C1C080D18083809480E0905E02F3
:10167000B401641B750BEE2009F4F6C08091610281
:10168000382F307F683C710508F0AFC031117AC047
:10169000EF2C2D1116C09C1114C0F11012C08F70C8
:1016A0008061809361020E94830AC5010E946D08D7
:1016B00080916102F80185838E2D6196ECE00C9497
:1016C0007D3081149104C9F18C2D8D218F3FA9F1BA
:1016D00081E08F2580FF05C04F2D6D2D8C2D0E9440
:1016E000920A8114910459F18C2D8D218F3F39F18B
:1016F00081E08F25F82FF170BF2E80FF39C04F2D6C
:101700006D2D8C2D0E94920AA82E811131C0CD869C
:10171000DE868D859E850E94340A292F22952F70A2
:10172000243078F49F702230A8F09923B9F0F801A2
:101730009581907F99F4EA2CBFCF80E0CBCF80E0F9
:10174000D9CF2A5F2F70223068F0C8010E946D083F
:10175000AB2CF1CF992311F0882369F3805E883098
:1017600050F3F3CF803F38F3815F833070F7E3CFDE
:10177000FF2009F4A1CF8091610281608093610212
:10178000E12C9ACF2D1105C09C1103C0FF2009F454
:1017900086C0C8010E94CD08882319F1FF2009F1F5
:1017A00080916102803270F020915C0230915D0284
:1017B00038872F8319869B868A868C87CE01079669
:1017C0000E946D0886E0F801ACE5B2E001900D9250
:1017D0008A95E1F70E94B20A0E94830AEE24E394FC
:1017E0006BCFC8010E946D08F9CF311114C0782D5C
:1017F000998A888AA6016F2D89890E94E0088CE564
:1018000092E00E946D0886E0F50111928A95E9F751
:101810000E94830AB5CF2D110EC09C110CC0F1108F
:101820000AC08583C8010E946D0886E0F501119207
:101830008A95E9F741CFC8010E94CD08882389F233
:10184000FF2079F280916102803208F4BBCF2091B1
:101850005C0230915D023A8329831B829D828C82D7
:101860008E83CE010196ACCF683C710508F03DC077
:10187000EF2CFF2009F4B5CF2D1129C09C1127C0F2
:101880008091610280FD1AC0982F907FB9F0858306
:10189000903F31F0982F907F905F8F70892B8583D8
:1018A000C8010E946D0886E0F801ACE5B2E0019045
:1018B0000D928A95E1F70E94830AFECE86E0F80138
:1018C000ACE5B2E001900D928A95E1F7F5CEC80142
:1018D0000E94CD08811176CF809161028160809352
:1018E0006102C8010E946D08E7CE782D998A888A26
:1018F000A6016F2D89890E94E00886E0F50111920A
:101900008A95E9F7D8CFFF2009F46BCFC8010E9470
:10191000CD08E82E882309F464CF86E0F801ACE511
:10192000B2E001900D928A95E1F78CE592E00E9479
:1019300026050E94B20ABFCFACE0B0E0E2EAFCE0CC
:101940000C946A304F83588769877A878B879C8786
:10195000CE0107960E940C0B8823B1F08A859B85E7
:10196000892B39F04F815885842F85238F3F09F0CB
:101970006CC016E080912A0290912B02891343C01B
:101980002C96E3E00C94863086E0FE013796DE016B
:10199000119601900D928A95E1F78A859B85892B96
:1019A00041F38F81988589238F3F19F320912B0272
:1019B00030E0C90101968770992740912A024817A3
:1019C000190671F40E94AD0810922B0210922A029F
:1019D00086E0ECE5F2E0DF011D928A95E9F7C9CFD8
:1019E00096E0929FD001939FB00D1124A45DBD4F4E
:1019F000FE01319601900D929A95E1F780932B02AA
:101A00000E94620AB6CF819FC0011124845D9D4F60
:101A10000E940C0B882309F4B3CFE0912A021E9F89
:101A2000F0011124E45DFD4F408151816281738199
:101A3000848195810E94EA0880912A0290E00196B3
:101A40008770992780932A0295CF69857A858B853F
:101A50009C850E94EA088DCF682F809104019091A7
:101A600005010E94C8270895682F80910401909174
:101A700005010E94CB2708958091040190910501F2
:101A80000E94CE27089580916A0285958595859557
:101A9000089580916A028770089590916A02977004
:101AA00081E009F480E00895809175020895909195
:101AB0007502892B80937502089580959091750227
:101AC000982390937502089510927502089590914D
:101AD0007402892B8093740208958095909174020A
:101AE000982390937402089510927402089580913F
:101AF0006B02089508950E947A0D08959091340321
:101B000092FF08C090916B02981721F080936B02AE
:101B10000E947B0D089580916B02882329F010921A
:101B20006B0280E00E947B0D0895CF93DF93E091DC
:101B30000401F0910501809175028083E091040118
:101B4000F0910501808190917402892B808390919E
:101B50006B02992381F0E0910401F09105018081ED
:101B6000892B808380910401909105010E94802738
:101B700081110E948B0DC0910401D091050148E0B4
:101B800050E062E672E0CE010E94FB30892B59F0F2
:101B900088E0FE01A2E6B2E001900D928A95E1F79D
:101BA000CE010E941D27DF91CF91089508950E94D4
:101BB000D60D08959091340392FF11C098E0899F4B
:101BC00090011124622B60936A020E943C0980916B
:101BD0006A028595859585950E94D70D08950E9486
:101BE0003C09089510926A0280E00E94D70D089582
:101BF00090916A028095892380936A02282F27702A
:101C000091F4282F082E000C330B9217130659F06D
:101C10009091340392FF07C08595859585950E9424
:101C20004C090E94F20D08959091340392FB2227F3
:101C300020F9281769F080FB92F990933403809182
:101C40003303909134030E945C0E82E00E94F80DF1
:101C500008958091340382FB882780F991E08927D9
:101C60000E94140E089581E00E94140E089580E0F1
:101C70000E94140E08956FEF7FEF90E080E00E94C5
:101C80004331089590E080E00E941F3121E0873EBB
:101C90009E4F09F020E0822F089582E090E00E949C
:101CA0001131089583E090E00E941131089584E09D
:101CB00090E00E941F310895BC0184E090E00E94F2
:101CC00043310895AB01BC018FE090E00E943731B1
:101CD0000895AB01BC0183E190E00E943731089583
:101CE00060E070E0CB010E94690E089567EE7EEF20
:101CF00090E080E00E94433160E082E090E00E944A
:101D0000253160E083E090E00E94253110922902A5
:101D10001092280260E074E184E090E00E94433178
:101D200060E086E090E00E9425316FEF87E090E070
:101D30000E94253140E050E0BA0188E090E00E9426
:101D4000373160E08DE090E00E94253140E050E0C6
:101D5000BA0188E190E00E94373160E087E190E0CD
:101D60000E94253140E050E0BA018CE190E00E94F1
:101D7000373170E060E080E290E00E94433140E063
:101D800050E0BA0188E190E00E9437310E94A3033D
:101D900008950E94760E0895682F8EE090E00E94CC
:101DA00025310895A5E0B0E0E8EDFEE00C9469303F
:101DB0000E9484288C01809176029091770280178E
:101DC0009107A1F08FEF89838A831B820E94842868
:101DD0008160782F9D838C8349815A816B818D81AD
:101DE0000E94F10410937702009376022596E4E0B6
:101DF0000C9485300E94902860938602709387022D
:101E00008093880290938902609382027093830288
:101E100080938402909385020895089508950E9406
:101E20000E0F089508950E94120F089581E00895FD
:101E300085E192E10E94FF260E940D0F0E940F0F84
:101E400008950E94E6130895089508950E94240FAE
:101E50000E94250F08950E9418120E94C5040E9436
:101E6000422308950E947B280E94CA110E94FE13FB
:101E70000E9442130E942B0F0E947F230E949221F6
:101E80000E94AD1F0E941A140E94130F0895A5E02E
:101E9000B0E0EDE4FFE00C9463300E94160F811176
:101EA00010C00E94D20E0E94E6130E941A200E94C7
:101EB00041230E9435180E94D8042596EAE00C942C
:101EC0007F300E94651388E7A82E82E0B82E750146
:101ED00010E0F70101917F01812F0E943E121F5FE8
:101EE0001A3009F440C00817A1F380918A0281FDDD
:101EF0000E9444120E94210FC82E10E0812F0E94E0
:101F00003E12082FF50181915F01081731F1F12C84
:101F1000EE24E394D02ED8268D2D8E21B1F0CC2046
:101F2000A1F0F9821A8391E0802F8E2109F490E0CC
:101F30009B830E9484288160782F9D838C834981B4
:101F40005A816B818D810E94F104F394EE0CF6E0CE
:101F5000FF12E2CFF501319700831F5F1A3071F64F
:101F60000E94FA0EA0CF0813C0CF9BCF1F93CF9330
:101F7000DF930E94E510EC01C11580E5D807F0F56C
:101F8000C11580E4D80708F09CC0C03ED10520F5FB
:101F9000CD3CD10508F082C0C83AD10578F4C53AE5
:101FA000D10508F073C0C130D10519F1209709F1AE
:101FB000C430D105F0F4D0E0C0E01BC0C33CD10573
:101FC000D0F7C85AD0E0CC0FDD1FC457DE4F0990C0
:101FD000D881C02DD4640DC0C11580E2D80708F0A7
:101FE000D1C0C11581E0D80708F05AC0C83ED1055C
:101FF00010F7CE01DF91CF911F910895C03682E591
:10200000D80718F5C03482E5D80708F06BC0C03295
:1020100082E5D80708F05FC0C11582E5D80708F44B
:1020200097C02C2F2695269580E2289F9001112499
:102030008C2F8370C1E0D0E002C0CC0FDD1F8A95E9
:10204000E2F7C22BD32BDD68D4CFC03A82E5D807A4
:1020500060F4C03882E5D80708F459C0CF71D0E0E9
:10206000DC2FCC27C46FD06AC4CFC03C82E5D80730
:1020700008F462C0C03E82E5D80708F09CCFDC2F90
:10208000CC27CC27DF71C06FD06AB3CFC55AD0E060
:10209000CE53DE4FC881D0E0D064ABCFD065A9CF9E
:1020A0008D2F0E948711182FCE0199270E94E510CD
:1020B000C12FD0E0DC2FCC27CC27DF71C82BD92B48
:1020C00098CFCE0199270E94E510CC27DF70C82B4E
:1020D000D92BD06A8ECFCF71D0E0DC2FCC27C16F47
:1020E000D06A87CF2C2F26952695277080E2289FCF
:1020F000900111248C2F8370C1E0D0E002C0CC0F7E
:10210000DD1F8A95E2F7C22BD32BDC6872CF2C2F10
:1021100026952695277080E2289F900111248C2F08
:102120008370C1E0D0E002C0CC0FDD1F8A95E2F7DA
:10213000C22BD32BDA685DCF8C2F8F710E94871151
:10214000C82FD0E0DC2FCC27CC27DF71D06251CF55
:102150008C2F8F710E94871155E0D695C7955A959F
:10216000E1F7CF70D0E0DC2FCC27282F30E084FFC0
:1021700005C044E0220F331F4A95E1F7C22BD32B51
:10218000D06937CF8D2F8F710E948711182FCE0104
:1021900099270E94E510C12FD0E0DC2FCC27CC2757
:1021A000DF71C82BD92BD2CF462F7A3030F466306E
:1021B00020F4672F0E94D603089590E080E00895F0
:1021C0000E94D4100E94B60F089582389105B9F18B
:1021D000B0F48133910509F47DC048F4893291054A
:1021E00009F46DC08A32910509F47BC008958533E6
:1021F000910509F45FC08933910509F10895833E83
:102200009105D9F138F4803E910529F1823E91057E
:1022100079F10895863E9105D9F1873E910509F43B
:102220003EC0843E910541F52091340321FF24C036
:102230008091330384FD19C087EE90E008952091CA
:102240003303237009F05AC02091340323FF14C0D4
:1022500089E290E008952091330320FD38C0309149
:10226000340330FF09C024FF43C090E080E00895AC
:102270002091330322FDF7CF08952091330322FDEF
:102280003AC03091340330FD39C024FFF5CFEDCF93
:102290002091330323FFF0CF24FDE7CFCDCF209152
:1022A000330323FD2EC03091340331FFEECF84EE93
:1022B00090E008952091330325FFDECFC9CF209110
:1022C000330325FD21C02091340323FFD5CF89E3BB
:1022D00090E0D2CF2091330326FFCECF8AE290E068
:1022E00008952091330326FFC7CF81E390E008953E
:1022F00083EE90E0089582EE90E0089580EE90E005
:10230000089586EE90E0089585E390E00895909119
:10231000330392FF06C0282F28712830F9F4877FF5
:10232000846093FF06C0282F28712831F1F4877E3E
:1023300084612091340320FF06C0382F3871383073
:10234000D9F4877F816021FF06C0282F28712831AA
:10235000D1F4877E816194FD877E0895282F2471B2
:102360002430F9F68B7F8860DCCF282F247124314C
:1023700001F78B7E8861DDCF382F3171313019F74D
:102380008E7F8860E0CF282F2171213121F78E7E4A
:102390008861E1CF10922F03109230031092310325
:1023A000109232030895CF92DF92EF92FF926B0169
:1023B0007C010E94E61381110EC00E949028C61A6B
:1023C000D70AE80AF90AC0922F03D0923003E092AC
:1023D0003103F0923203FF90EF90DF90CF90089599
:1023E0000F931F930E94E613882329F00E949028E0
:1023F0001F910F9108950E94902800912F03109132
:1024000030032091310330913203600F711F821F1E
:10241000931FEECF0E94E613882319F00E948428B0
:1024200008950E94F011CB01089580E00895089569
:102430000E94420E811102C00E94C90E0E944D0EE0
:1024400080938A020E94570E909334038093330343
:102450000E9417120E94520E90E00E940009809183
:102460002602909127020E942109089508950E9452
:102470003612089508950E943A120895E82FF0E068
:10248000E05CFC4F80810895089580EA8A95F1F719
:10249000089500C008950E944512089508950E946D
:1024A0004E120895A5E0B0E0E8E5F2E10C94673043
:1024B0000E94E613F82E60914A03882309F440C075
:1024C00085E0E82E8E010F5F1F4FF8018E2D1192CF
:1024D0008A95E9F7862F90E0B801805C9C4F0E94B6
:1024E00028148823B9F08091350390E045E050E04E
:1024F000B801805C9C4F0E94FB3021E020938B024E
:10250000892B91F4F12C0E943B128F2D2596E6E049
:102510000C94833080918B028823A1F3F8011192EF
:10252000EA94E9F710928B02A0913503B0E0A05C29
:10253000BC4F85E0F80101900D928A95E1F7E3CF59
:1025400070E0605C7C4F8091350390E0805C9C4F34
:102550000E94AF140E944F12D8CFF894E82FE29552
:10256000EF70F0E031A1282F2F7081E090E001C0E2
:10257000880F2A95EAF7982F9095932391A392A11B
:10258000892B82A3789408950F931F93CF93DF93A1
:10259000CBECD1E089918F3F11F00E94AD1281E028
:1025A000C03DD807B9F7C5ECD1E00BEC11E089913B
:1025B0008F3F11F00E94AD120C171D07C1F7DF917C
:1025C000CF911F910F910895B0E0A0E0EAEEF2E103
:1025D0000C946530EC01D62E062F10E0C80185530F
:1025E0009E4F7C01FC0180818F3F09F444C0F89428
:1025F000E82FE295EF70F0E091A18F7021E030E0DC
:1026000001C0220F8A95EAF7892F822B81A382A12C
:102610002095282322A378940E944912E5ECF1E04A
:1026200031E0C12C21912F3F59F1A22FA295AF701B
:10263000B0E090968C9190E02F7002C095958795B0
:102640002A95E2F780FD1CC0832FC82A330F81E052
:10265000EB3CF80739F7F70180818F3F11F00E94BA
:10266000AD1261E0C11001C060E08D2D0E944B12DF
:10267000C00FD11FC882CDB7DEB7E8E00C9481301F
:1026800080E0E3CF809106018091060195E0811101
:1026900090E090934A0385E0891B809335030E9464
:1026A000C4128AE0E0E4F3E0DF01982F1D929A95CE
:1026B000E9F7E6E3F3E0DF011D928A95E9F785E0AB
:1026C0000E94A3130E9437120895AAE0B0E0EBE63F
:1026D000F3E10C9468308E010F5F1F4F8AE0F80120
:1026E00011928A95E9F7F12C6F2DC8010E94E4122E
:1026F000F394F5E0FF12F8CF4AE050E0B80186E32A
:1027000093E00E94FB3021E0009709F420E0892B40
:1027100041F08AE0F801A6E3B3E001900D928A95BA
:10272000E1F760914A0370E0605C7C4F45E086E32E
:1027300093E00E94A413182F0E945212812B2A9614
:10274000E5E00C9484300895CF92DF92EF92FF92EF
:102750000F931F93CF936C017B01042F222349F029
:1027600081E080938E020E94842890938D02809352
:102770008C02C0918E02C1110AC0C0E08C2FCF9193
:102780001F910F91FF90EF90DF90CF90089580916F
:102790008C0290918D020E949C28059770F310E0A6
:1027A000A801B601C7010E94FB30892B41F0A801A6
:1027B000B601C7010E94083110928E02DFCFC0E03F
:1027C000FBCF89B185FB882780F90895809191021C
:1027D000811107C00E94A32F882351F081E08093CC
:1027E000910281E090919102913009F080E008958A
:1027F00082E0809391020E949E2FF3CF55985D98BE
:102800008FE891E00197F1F700C000000E94E1130A
:10281000809306018091060166E0882349F080E0FC
:102820000E94C9190E94E61381110E945E14089546
:1028300086E0F6CF0E94E613811102C00E94611467
:10284000089581E0909192029A3008F080E0089516
:102850000F931F93CF93DF93EC018B018091920232
:102860008A30B8F4B801CE010E94AC14C82F81118F
:1028700022C0809192028F3FB9F40E9484289093E5
:10288000900280938F028C2FDF91CF911F910F9137
:10289000089580918F02909190020E949C28843F1D
:1028A000914000F7C0E0EFCF8F5F809392028A30B3
:1028B00020F7C1E0E8CF10929202E5CF0E949D255B
:1028C00008950E94A0250895B0E0A0E0EAE6F4E1B2
:1028D0000C9466307901C82F880FDD0B4115510526
:1028E000A9F0FE0193E0EE0FFF1F9A95E1F7E95F73
:1028F000FE4F818192818D569D4F208130E042179D
:10290000530708F49A01A9010E940831CE010E94E0
:102910008926D82E8823D1F001151105B9F083E05E
:10292000CC0FDD1F8A95E1F7FE01E95FFE4F438181
:1029300050E00417150708F4A801C95FDE4F6C8149
:102940007D816D567D4FC7010E9408318D2DCDB719
:10295000DEB7E7E00C9482300E941A1608950E94B8
:1029600043160895A4E0B0E0E8EBF4E10C9469307C
:102970006091B3027091B4028091B5029091B60259
:102980000E94AB2811E0643671058105910518F1AC
:102990000E94F0116E5F7F4F8F4F9F4F69837A8344
:1029A0008B839C8310E000E030E020E044E050E0C6
:1029B000BE016F5F7F4F82E00E946414182F88234E
:1029C00051F00E9490286093B3027093B4028093F8
:1029D000B5029093B602812F2496E4E00C948530E2
:1029E000B0E0A0E0E6EFF4E10C946330C82F7B0187
:1029F000D42F69015801FB0160817181828193812B
:102A00000E94AB28643671058105910510F4DD2321
:102A1000C9F010E000E030E020E0A501B6018C2F05
:102A20000E946414C82F882339F00E949028F7016F
:102A300060837183828393838C2FCDB7DEB7EAE006
:102A40000C947F30C1E0F8CFA8E0B0E0EAE2F5E115
:102A50000C946930CE0101960E94DB1E41E088850E
:102A6000811101C040E008E010E09E012F5F3F4F60
:102A70006BEB72E084E00E94F014182F81110E9429
:102A8000D81E812F2896E4E00C948530A1E0B0E0B8
:102A9000ECE4F5E10C9469300E9474218823D1F0B4
:102AA0000E948C218983E091D001F091D10141E015
:102AB0009285981301C040E001E010E09E012F5F75
:102AC0003F4F67EB72E083E00E94F0142196E4E050
:102AD0000C94853080E0E6CFB0E0A0E0E2E7F5E1DD
:102AE0000C9463307C015B016A010E94211401E0B7
:102AF00010E0882311F00AE010E0C1E0D0E0B50159
:102B0000C701F6010995811104C021960C171D0714
:102B10002CF4CDB7DEB7EAE00C947F30CC9F900167
:102B2000CD9F300D300D112490E080E045E34A95B3
:102B3000F1F70000019682179307C1F7E0CFA6E0F6
:102B4000B0E0E5EAF5E10C9463307B01C090D00180
:102B5000D090D10101E010E09E012A5F3F4F50E08C
:102B600040E070E060E080E00E946414182F882349
:102B700009F448C056018FEFA81AB80A6091AF0255
:102B80007091B0028091B1029091B2020E94AB2884
:102B9000643671058105910568F105E010E09E013C
:102BA0002F5F3F4F50E040E070E060E081E00E9426
:102BB0006414D82E65E070E0C5010E94802311E006
:102BC0009E81981310E01D2141F10E94902860938E
:102BD000AF027093B0028093B1029093B20285E08D
:102BE000FE013196AAEAB2E001900D928A95E1F7D2
:102BF00011E013C065E070E0C5010E9480239E8152
:102C00008913CBCF85E0F6013196DE011196019054
:102C10000D928A95E1F71111E2CF85E0EAEAF2E040
:102C2000D70101900D928A95E1F7812F2696EAE06F
:102C30000C947F300F931F93CF93DF93EC018B01A4
:102C40004FE955E10E946C15811106C080E0DF91CB
:102C5000CF911F910F91089542EB54E1B801CE013D
:102C60000E946C15882391F346E455E1B801CE012A
:102C70000E946C15882351F344E255E1B801CE015E
:102C80000E946C15E4CFA8E0B0E0E9E4F6E10C9412
:102C900065300091D0011091D101C801019625E065
:102CA000FB01DC0101900D922A95E1F765E070E0EF
:102CB0000E948023F80180836681778180859185D9
:102CC000C090A602D090A702E090A802F090A902BE
:102CD0006C157D058E059F0551F06093A6027093DB
:102CE000A7028093A8029093A9020E94D311F80131
:102CF00082850E949B2288E0F8013B96DE011196B6
:102D000001900D928A95E1F7F801128A888588234F
:102D100029F060E0CE0101960E94E51F2896E8E0C8
:102D20000C9481300E94742A0E94320F0E94812AE2
:102D300008950E94862A0E94470F0E94A02A0895A3
:102D40000E941D280E945A2A0E94180F0E94921663
:102D50000E9499160E94260FFBCF8091C50280FF2A
:102D60000DC06091340170E0660F771F6038710507
:102D700070F56115710569F1862F089581FF07C00F
:102D80006091340184E0689FB0011124EFCF60911D
:102D9000340182FD0AC08091C4028823A9F02091E9
:102DA000330160913401821710F088E0ECCF869FE8
:102DB000C001112433E0880F991F3A95E1F7622F83
:102DC00070E00E94EE2FD2CF68E070E0D5CF8FE7A1
:102DD000089581E008958091C50280FF0CC0609144
:102DE000300170E07595679575956795611571056A
:102DF00049F1862F089581FF06C06091300170E08F
:102E000075956795F3CF6091300182FD0BC090916D
:102E1000C3029923A1F060912F0180913001961790
:102E200038F0682F70E06038710500F38FE708957F
:102E3000899FC001112470E00E94EE2FF4CF61E061
:102E400070E0D7CF81E008958D3C31F40E94AD163B
:102E500081958093C90208958E3C19F40E94AD16A5
:102E6000F8CF8F3C31F40E94AD1681958093C80253
:102E70000895803D19F40E94AD16F8CF893D29F4DC
:102E80000E94EB168093CA0208958A3D21F40E94A5
:102E9000EB168195F7CF8B3D31F40E94EB168195AF
:102EA0008093CB0208958C3D19F40E94EB16F8CF65
:102EB0009FE2980F983070F4815D990B21E030E02B
:102EC00001C0220F8A95EAF78091C702822B809376
:102ED000C70208958D3D31F48091C50281608093D1
:102EE000C50208958E3D21F48091C5028260F7CF1E
:102EF0008F3DB9F78091C5028460F1CF4091C8023F
:102F00008D3C59F48091C90287FF0DC01092C9020F
:102F100041110BC01092C40208C08E3C81F4809114
:102F2000C90218169CF3442381F08091CA02909143
:102F3000CB02892B09F05AC01092C30208958F3C2E
:102F400049F447FFF0CF1092C8028091C902811165
:102F5000ECCFE0CF803D19F41416ACF3E4CF9091A0
:102F6000CA02893D29F41916F4F61092CA02DBCF81
:102F70008A3D19F497FFD7CFF8CF9091CB028B3DC4
:102F800029F497FFD0CF1092CB02CDCF8C3D19F40E
:102F90001916CCF3C8CF9FE2980F983090F4815D5A
:102FA000990B21E030E0B90102C0660F771F8A95C6
:102FB000E2F7CB0180959091C70289238093C702E5
:102FC000B2CF8D3D31F48091C5028E7F8093C502D2
:102FD000AACF8E3D21F48091C5028D7FF7CF8F3D22
:102FE00009F0A1CF8091C5028B7FF0CF08950E9498
:102FF00084289C019091C8028091C902982B21F0ED
:103000003093C2022093C1029091CA028091CB02F8
:10301000982B21F03093C0022093BF0286EC92E0FF
:103020000E942827089586E0E6ECF2E0DF011D9279
:103030008A95E9F71092C4021092C3021092C50259
:103040000895FC01828181110EC0838181110BC022
:103050008481811108C091E08581811101C090E0D7
:10306000892F8170089581E0FCCFA6E0B0E0EBE30A
:10307000F8E10C946A3086E0E6ECF2E0DE011196AD
:1030800001900D928A95E1F71092C8021092C90240
:103090001092CA021092CB028B819C81892B89F0FD
:1030A0008091C1029091C2020E949C28AC01909133
:1030B000C4029923C9F1809135018417150608F4DB
:1030C00040C08D819E81892B91F08091BF029091AB
:1030D000C0020E949C28AC019091C302992309F47C
:1030E00071C0809131018417150608F479C0BE01C2
:1030F0006F5F7F4F86EC92E00E94D527811105C05B
:1031000086EC92E00E94211881110E94F71786E058
:10311000FE013196A6ECB2E001900D928A95E1F79E
:103120002696E3E00C948630209136018AE0289FB1
:10313000900111242417350720F69F5F9093C40255
:1031400002C09F3FD1F71B81112359F00E94AD1699
:103150009FEF11160CF491E0899F802D112480932C
:10316000C8021C81112359F00E94AD169FEF111661
:103170000CF491E0899F802D11248093C902309135
:10318000C802332309F49DCF2091C902222309F4F8
:1031900098CF45EB3403C0011124992359F0909343
:1031A000C80245EB240390011124332339F03093F6
:1031B000C90287CF81E08093C802F3CF81E080937A
:1031C000C9027FCF209132018AE0289F900111240B
:1031D0002417350708F08BCF9F5F9093C30202C07E
:1031E0009F3FD1F71D81112359F00E94EB169FEFED
:1031F00011160CF491E0899F802D11248093CA024E
:103200001E81112359F00E94EB169FEF11160CF44A
:1032100091E0899F802D11248093CB023091CA02C6
:10322000332309F464CF2091CB02222309F45FCF2A
:1032300045EB3403C0011124992359F09093CA023D
:1032400045EB240390011124332339F03093CB0252
:103250004ECF81E08093CA02F3CF81E08093CB020E
:1032600046CFEF92FF920F931F93CF93DF93EB0123
:10327000E82FD1110EC0442321F0F0E0EA56FB4FB5
:10328000E4916E2F7E2F8E2FCDB7DEB7E6E00C9443
:1032900083300D2F10E0282F30E0442329F02A56E8
:1032A0003B4FF901249130E0F6E0CF9FC00111249B
:1032B000EFEFF0E0BF010E94DA2FAB018C2F90E01E
:1032C000880F991FA5E5A49FB001A59F700D11243B
:1032D000861B970B982F990F980FBF01601B710BDE
:1032E000629FD001639FB00D729FB00D11248B2F90
:1032F0009D9FB0011124672F7727EF01C61BD70BC5
:10330000BE01629FE001639FD00D729FD00D11241A
:103310007F01E91AF108E09EB001E19E700DF09E78
:10332000700D1124672F7727E61BF70BE29F8001B2
:10333000E39F100DF29F100D1124E12F722F4230E8
:10334000510599F048F44115510569F04130510596
:1033500081F0EB2F8D2F07C04430510569F080F0CC
:1033600046305105B1F76E2F8FCFE22F7B2F812F83
:10337000FACFE22F7D2FF7CFEB2F822F712FF3CFD4
:103380007B2F822FED2FEFCF41E00E94311908955E
:103390000895EAE3F1E08083618308950E94C419EF
:1033A0000895CF93DF93762FE901682F842F0E9431
:1033B000CE19798368838A83DF91CF9108958091B4
:1033C0004B03982F9E7F29F48170826080934B037A
:1033D00008958635E8F381708465F8CF88E090E041
:1033E0000E9419310895CF92DF92EF92FF926B0104
:1033F0007C010E94DF19B701A60188E090E00E94DD
:103400003731FF90EF90DF90CF900895EBE4F3E039
:1034100083E0808311828FEF828383831482A5E10E
:10342000B3E012968C911297836012968C93608110
:103430007181828193810E94F319089580914B03D9
:1034400080FF02C08695089580E0089590914F0313
:10345000933018F49F5F90934F03882351F060914D
:103460004B0370914C0380914D0390914E030E9449
:10347000F319089581E00E94261A089590914F0350
:10348000992319F0915090934F03882351F0609144
:103490004B0370914C0380914D0390914E030E9419
:1034A000F319089581E00E943E1A089570E00E9489
:1034B0005323089560913B0180914B0380FF0BC023
:1034C00080913A0123E0829FC0011124805B9C4FD0
:1034D0000E94561A089580913C0190913D0123E08D
:1034E000829FF0011124E05BFC4F891748F711829D
:1034F000108212828F5F3396F8CF90914B0390FF2A
:103500000EC090913C0120913D0133E0939FF0016A
:103510001124E05BFC4F921718F00E945A1A08958C
:103520008183608342839F5F3396F5CFA3E0B0E051
:10353000ECE9FAE10C946B3090914B0390FF0AC0D8
:103540009E012F5F3F4F0E94D1194B8169818A8173
:103550000E947D1A2396E2E00C948730CF93DF938C
:10356000EC01EC81F0E0EF56FC4F4491EBE4F3E02A
:10357000628181810E94961A8C818F5F8C83DF919A
:10358000CF910895CF93DF93EC01EBE4F3E0438117
:1035900062818C810E94961A8C818F5F8C83DF916F
:1035A000CF910895A3E0B0E0E8EDFAE10C94693022
:1035B0008C018091CC0281110AC09E012F5F3F4F88
:1035C0004FEF6FEF0E94D1198A818093CC02F801EE
:1035D0006481613069F08091CC0240E0662361F043
:1035E00040E0623011F44091CC0280E060E004C021
:1035F0006091CC0240E080E00E947D1AF801848155
:1036000090E0019663E070E00E94EE2F84832396A1
:10361000E4E00C948530A3E0B0E0E1E1FBE10C9440
:103620006430082FD62EF42EC22E90914B0390FFBB
:103630003CC020914C03281308C080914D03861391
:1036400004C080914E03841729F080911703826093
:1036500080931703E92FE695AE2FB0E0AE52BE4F30
:103660008C91809315039E7F923019F59E012F5FF8
:103670003F4F4F2D6D2D802F0E94D1194B816981B5
:103680008A810E947D1A00934C03D0924D03F092E0
:103690004E03CC2051F060914B0370914C0380910C
:1036A0004D0390914E030E94F3192396E9E00C9488
:1036B0008030823019F4F0904E03E5CF8630A1F1CE
:1036C000893091F18931F9F6E9516E2F6170B62E8A
:1036D000E695F0E0EF56FB4F1491E12C60913E012E
:1036E000E61618F00E945A1ACECFE19EC0011124AE
:1036F00070E00E94DA2F802FB11014C0860F209145
:103700003C01622F6E0D7727771F9B01220F331F1D
:10371000260F371F205B3C4F4F2D6D2D0E94D11976
:10372000E394DCCF861BEBCF022FADCFEBE4F3E0CD
:103730009181282F4381628188E0890F0E940B1BB1
:10374000089581E00E94961B0895EBE4F3E09181D7
:10375000282F4381628188EF890F0E940B1B0895F7
:1037600081E00E94A51B0895EBE4F3E0628121E172
:10377000620F08F46FEF282F438181810E940B1B99
:10378000089581E00E94B41B0895EBE4F3E06281A8
:1037900021E1621B08F460E0282F438181810E94AF
:1037A0000B1B089581E00E94C51B0895EBE4F3E034
:1037B000438121E1420F08F44FEF282F628181817C
:1037C0000E940B1B089581E00E94D61B0895EBE434
:1037D000F3E0438121E1421B08F440E0282F62819D
:1037E00081810E940B1B089581E00E94E71B0895D0
:1037F00021E00E940B1B089520E00E940B1B0895FE
:10380000EF92FF921F93CF93DF93EC0110E0EE2431
:10381000EA94F12C60913E01161770F00E945A1A3A
:103820009A818C8190FF27C08F5F8C83DF91CF912D
:103830001F91FF90EF90089520913C01422F410F7E
:103840005527551FCA019A01220F331F280F391F10
:10385000205B3C4F70E0C7010E94EE2F962F8C81B9
:1038600040914E0360914D03199F800D11240E94D9
:10387000D1191F5FCFCF8150D8CFB0E0A0E0E3E4F3
:10388000FCE10C946130EC018A81BB24BA9480FD88
:1038900002C0BB24B3948C8181110AC081E0B812AC
:1038A00022C080913E0181508093CE0281E08C83C2
:1038B000A12C4CE0942E80913E01A816B8F00E94F5
:1038C0005A1A8091CE0291E0B91259C0811152C0AA
:1038D00080913E0181508093CE021C82CDB7DEB72D
:1038E000ECE00C947D301092CE02E0CF00913C01D0
:1038F000CA2CD12C0C0D1D2D111DC801880F991F2C
:10390000080F191F005B1C4FF801118210821282F0
:1039100034E0E32EF12C812C8091CE02880D8D3085
:103920001CF1692D0E94CC2F892F082E000C990BB9
:10393000C816D90691F480914E038E9DA0018F9DEB
:10394000500D1124559547955595479598016091CF
:103950004D0380914C030E94D1198B0CF1E0EF1ABA
:10396000F108D1F6A394A7CF87FFDFCF90913E0156
:10397000890FDBCF81508093CE02BC82AFCF90E025
:10398000019660913E0170E00E94EE2F8093CE027E
:103990008C83A4CFEF92FF920F931F93CF93DF936B
:1039A000EC018C81811109C081E08C831092CD02E1
:1039B00092E0909339018093380180913C0190917D
:1039C0003D0123E0829FF0011124E05BFC4F891749
:1039D00058F110E003E060913E01161758F10E9483
:1039E0005A1A809138012091CD02280F2093CD02E0
:1039F00090913901980F90933901191654F4022EC1
:103A0000000C330B40913E014150550B24173507F4
:103A100034F0819580933801813009F41C82CDB750
:103A2000DEB7E6E00C9483301182108212828F5F41
:103A30003396CDCFE12EF12C70E0C7010E94EE2F1E
:103A400020913C01820F482F50E02091CD02022EA0
:103A5000000C330BE216F306BCF020913901022E64
:103A6000000C330B2E153F057CF0809F9001112434
:103A7000205B3C4F40914E0360914D0380914C037D
:103A80000E94D1191F5FA7CFFA01EE0FFF1FE40FAD
:103A9000F51FE05BFC4F118210821282F3CFB0E081
:103AA000A0E0E5E5FDE10C946130EC014C81042FD0
:103AB00010E09801D8010E9432309B01AC010E94B5
:103AC00048304B015C01E0E2F0E0E01BF10BA5E5C2
:103AD000B0E0AC019B010E9448306B017C019F016A
:103AE000DF010E942A309B01AC010E9453309B01F0
:103AF000AC01280D391D4A1D5B1DC701B6010E948E
:103B00000230F22E822F90E039E23F1520F143E09F
:103B1000249F9001112435952795122F109500E0D0
:103B200085E5E82EEF1880913E01081718F10E94F4
:103B30005A1A9C8181E0992319F0903219F48FEF81
:103B40008093370180913701890F8C83CDB7DEB721
:103B5000ECE00C947D3025E530E0B901681B790B71
:103B60009B01220F331F260F371F37FFD4CF2F5F44
:103B70003F4FD1CF8E2D01FD8F2D20913C01622F23
:103B8000600F7727771F9B01220F331F260F371FE8
:103B9000205B3C4F412F60914D030E94D1190F5F74
:103BA000C2CF0F931F93CF93DF93EC0110E000E09F
:103BB00090913E019017110609F06CF40E945A1A78
:103BC0008C8190E00196817099278C83DF91CF9151
:103BD0001F910F91089520913C01A801420F511DA2
:103BE0009A01220F331F240F351F205B3C4F4C815D
:103BF00060914D0380914C0396959017110651F0FA
:103C00004CF0442349F040914E030E94D1190F5FBC
:103C10001F4FCECF4423B9F340E0F7CFB0E0A0E090
:103C2000E4E1FEE10C945D30FC016280448081E0BF
:103C30008483E1E9F3E07490E0E1F4E0E491C09181
:103C40004E03C695C158D0E0CC0FDD1FCD2FDD2728
:103C5000812C75E0972EAA24AA94B12C55245A944D
:103C6000E719EE2EF12C80913E01881638F00E9463
:103C70005A1ACDB7DEB7E0E10C947930C82CD12CBC
:103C800082E0861568F09C9CF0019D9CF00D11244B
:103C9000EE52FD4F80914C03808380914D038183D0
:103CA000411023C09C9CF0019D9CF00D1124EE520C
:103CB000FD4F1382128220913C01C601820F911D9B
:103CC0009C01220F331F280F391F205B3C4F9C9C07
:103CD000F0019D9CF00D1124EE52FD4F4281618157
:103CE00080810E94D1198394BECF9C9C80019D9CB1
:103CF000100D11240E521D4FF80183818823F1F01D
:103D000081508383859DC0011124648170E00E94ED
:103D1000DA2FFB01FF27EF56FC4F8491E82FE719BC
:103D2000E59DC0011124B7010E94DA2F80914E0356
:103D3000689FB0011124F8017283BDCF0E94DE306C
:103D4000B5010E94EE2F8C179D070CF0B4CFF2E066
:103D5000F61598F40E94DE30B5010E94EE2FF801AE
:103D600080830E94DE3020914D032695622F70E003
:103D70000E94EE2F280FF80121839C9CF0019D9C4E
:103D8000F00D1124EE52FD4F128280914E03893CBA
:103D900058F088EC9C9CF0019D9CF00D1124EE5293
:103DA000FD4F8483838387CF8431A0F784E1F2CFF2
:103DB00010921703089525E0EBE4F3E0DC01019095
:103DC0000D922A95E1F72091150330911603409149
:103DD0001703FC012583368347830895E5E1F3E06B
:103DE00011828281846082830895EBE4F3E0808114
:103DF0008E7F80830E94EE1EE5E1F3E08281816088
:103E000082830E945A1A0895EBE4F3E080818E7F4A
:103E1000808360817181828193810E94F3190E9465
:103E2000EE1EE5E1F3E08281816082830E945A1AEE
:103E3000089560914B03669570E04BE050E08FE38E
:103E400091E00E94EE30892B19F481E080931603F3
:103E50000E940A1290930F0380930E038091170320
:103E6000846080931703089590914B0390FF30C0B6
:103E7000917081112EC0926090934B038091170333
:103E8000816080931703662351F060914B0370911A
:103E90004C0380914D0390914E030E94F319609161
:103EA0004B03669570E04BE050E08FE391E00E9499
:103EB000EE30892BA9F00E94EE1E81E08093110361
:103EC00040914E0360914D0380914C030E94FC1B76
:103ED00008958B3210F09465CFCF880F982BCCCFFC
:103EE0000E94191FEACF682F90914B03969581E0AD
:103EF000890F8B3208F081E00E94341F089581E021
:103F00000E94731F0895682F90914B0396958FEF31
:103F1000890F09F48AE20E94341F089581E00E940B
:103F2000831F089561E00E94341F0895EBE4F3E0DD
:103F300080818160808386950E94921F0895809180
:103F40004B0380FF03C00E94041F08950E94961F28
:103F5000089560E00E94341F089580911403811138
:103F600033C00E94420E811104C00E94C90E0E94FB
:103F7000061A0E94EE1960934B0370934C038093D2
:103F80004D0390934E038091170383608093170332
:103F90006E7F61F40E94061A0E94EE1960934B0333
:103FA00070934C0380934D0390934E030E94DF194E
:103FB0000E94EE1E80914B0380FF03C086950E94F5
:103FC000A91F81E08093140308951F93CF93DF937B
:103FD000EC01162F8F8180FF0CC0888180FF24C0E8
:103FE00080914B03816080934B03888186950E946A
:103FF000341F8F8181FF06C0212F4B816A81898107
:104000000E940B1B8F8182FF05C08E81882379F06F
:104010000E94191F8F8183FF03C081E080931103E9
:10402000DF91CF911F9108950E94F51EE2CF0E946B
:10403000EE1EF0CFEF92FF920F931F93CF93DF937B
:1040400080911603882309F463C080911503E091E1
:104050004B03E695E81BE0931003823009F05DC046
:10406000F0E0E357FC4FE491CE2FD0E00EEA1AE1E6
:1040700080911103882361F0109211030E940A12AB
:1040800090930F0380930E03109213031092120368
:104090000E940A12E0910E03F0910F039C012E1B67
:1040A0003F0B2F3F3F47A0F52091D1022223B1F0D3
:1040B0001092D1022091CF023091D002821B930B3B
:1040C0008F3F9F4758F4205D3A483093D0022093A9
:1040D000CF0280911703886080931703E09012034A
:1040E000F0901303EC0FFD1FF0930F03E0930E030A
:1040F0008EE093E0F80109958091120390911303EB
:10410000892B31F4E114F10419F081E08093D1029C
:10411000CDB7DEB7E6E00C948330863049F4F0E0AA
:10412000E657FC4FE491CE2FD0E002EC1AE1A0CF8D
:10413000893051F4E695F0E0E957FC4FE491CE2F39
:10414000D0E000E01CE194CF8F3051F4E695F0E030
:10415000EC57FC4FE491CE2FD0E00DE31CE188CF6B
:10416000853149F4F0E0EF57FC4FE491CE2FD0E0D9
:104170000AEC1CE17DCFC8E2D0E00FE41DE18831FC
:1041800009F476CF833239F4EFE7F3E0C591D491A7
:1041900002ED1AE16DCFC4EFD1E001ED1DE18432F3
:1041A00009F466CFC0EDD7E008EC19E1853209F0DB
:1041B0005FCF8E2F63E00E94C02FE92FF0E0E4581C
:1041C000FC4FE491CE2FD0E00EE01EE151CFFA017A
:1041D000811101C0FB0109950895CF93DF93C82F8A
:1041E000D62F0E941E1A8C1748F00E941E1A8D1797
:1041F00028F40E947F1FDF91CF9108958C2F0E9499
:10420000921FF9CF1F93CF93DF93EC01FB01128133
:10421000111110C00E94540D8272FE01E052F84745
:10422000E531F10508F05EC0EA57FE4C0C942430ED
:104230000E949F1F812FDF91CF911F9108954EE81B
:104240005FE16FE77FE10E94E720F4CF4FE75FE196
:104250006EE87FE1F8CF40EB5BE161EA7BE1F3CF11
:1042600041EA5BE160EB7BE1EECF42ED5BE161ECCB
:104270007BE1E9CF41EC5BE162ED7BE1E4CF44EF30
:104280005BE163EE7BE1DFCF43EE5BE164EF7BE17B
:10429000DACF42E55AE16AE37AE1D5CF4AE35AE15F
:1042A00062E57AE1D0CF81E00E94921FC3CF65E042
:1042B00082E00E94ED20BECF68E086E0FACF6EE09B
:1042C00089E0F7CF64E18FE0F4CF67E185E1F1CFDA
:1042D00088E1EACF62E289E1ECCF83E2E5CF6AE2EE
:1042E00085E2E7CF11E0A6CF809174038170089535
:1042F00086E090E00E9411310895682F86E090E0FA
:104300000E9425310895E4E7F3E080818470896399
:1043100080830E947D2108958091740386958695FF
:10432000869508950E94420E811104C00E94C90E14
:104330000E9483210E94782180937403803420F0AE
:10434000877088638093740390917403892F8170C0
:1043500090FF04C0892F8695869586950E949B22A2
:10436000089580917403982F969596959695973019
:1043700040F49F5F990F990F990F8770892B809355
:104380007403809174038160809374030E947D2183
:10439000809174038695869586950E949B22089548
:1043A00080917403982F987F79F0885080937403DC
:1043B000887F91E009F490E08091740390FB80F98C
:1043C000809374030E947D21809174038695869565
:1043D00086950E949B2208958091740380FD13C0EE
:1043E000816080937403813019F489E080937403B1
:1043F000809174030E947D21809174038695869537
:1044000086950E949B2208958091740380FF08C0C6
:104410008E7F809374030E947D2180E00E949B2206
:1044200008958091740380FF03C00E9404220895C0
:104430000E94EC21089590917403892F86958695AA
:1044400086958F5F8F7197708830E0F4880F880FA2
:10445000880F892B8093740380917403887F91E087
:1044600009F490E08091740390FB80F980937403C9
:104470000E947D21809174038695869586950E9481
:104480009B22089590937403E7CF883008F087E06B
:10449000909174039770282F220F220F220F922BD6
:1044A00090937403987F21E009F420E090917403C5
:1044B00020FB90F9909374030E949B2208950E9420
:1044C0004522809174030E947D2108959C01FB0187
:1044D0008281882349F12230F8E73F07F9F040F460
:1044E0002115E8E73E0769F02130384779F0089553
:1044F000243098E7390779F058F02530384789F0AB
:10450000089587E00E945F2280E0089580E0FACF5E
:104510000E94D021F9CF0E94B121F6CF0E94112232
:10452000F3CF0E941B22F0CF81E00895259A2D98A9
:1045300008952D9808958F929F92AF92BF92EF9217
:10454000FF920F931F93CF93DF93C82F8830C0F54E
:10455000811137C0809180008F77809380000E9406
:104560009922A0918600B09187002C2F30E00E9404
:10457000323027E030E040E050E00E940230890114
:104580009A0180918600909187006CE070E00E9413
:10459000DA2F60177107D8F0C80169E070E00E9457
:1045A000DA2F7093890060938800DF91CF911F917B
:1045B0000F91FF90EF90BF90AF909F908F900895D4
:1045C000C7E080918000806880938000CACF80918E
:1045D000860090918700E0908600F0908700E0913F
:1045E0008600F0918700C6E0D0E0BE010E94DA2F7D
:1045F000060F171F211D311D4801590185E0880C48
:10460000991CAA1CBB1C8A95D1F7C701BE010E9448
:10461000DA2F9F0150E040E0260F371F411D511D4A
:10462000C501B4010E94023049015A01E09186009F
:10463000F0918700CA01B9010E94B02F9B01AC0123
:10464000DF010E9448309B01AC01C501B4010E940A
:10465000B02F2FE096958795779567952A95D1F796
:10466000009186001091870030E020E006171707C0
:104670002807390708F095CF609186007091870070
:1046800090CF08950E94962282E88093800089E16D
:10469000809381008FEF9FEF909387008093860037
:1046A0000E9492210895249A45B14F7E55B15061E0
:1046B000EFB7F8949B01220F331F260F371F280FE7
:1046C000391F2817390741F4EFBF8FE594E00197B0
:1046D000F1F700C000000895DC016D91CD0178E094
:1046E00055B9000000C067FF45B9660F000000C063
:1046F00000C000C045B900C07A9591F7E2CF089597
:10470000FC01680F791F8FEF91E3E617F70709F4B3
:1047100008952191822728E030E087FF06C0880FA6
:10472000892721503109C9F7F0CF880FFACFCF93ED
:10473000DF93EC01FB018281882309F4D2C09E0142
:1047400030572332310508F0B2C00E94570E9093C3
:10475000340380933303FE01E150F047E232F10568
:1047600020F4E556FE4C0C94243080913303816094
:104770008093330393C08091340388608093340323
:104780008DC0809133038260F3CF809133038460C6
:10479000EFCF809133038860EBCF80913403816049
:1047A000EDCF809134038260E9CF80913303806143
:1047B000DFCF809133038062DBCF8091330380644D
:1047C000D7CF0E94AD08809133038068D1CF80910C
:1047D00033038C60CDCF809134038360CFCF809141
:1047E00033038E7FC5CF80913403877FC7CF8091FD
:1047F00033038D7FBDCF809133038B7FB9CF809101
:104800003303877FB5CF809134038E7FB7CF8091FC
:1048100034038D7FB3CF809133038F7EA9CF8091F6
:1048200033038F7DA5CF809133038F7BA1CF0E946F
:10483000AD08809133038F779BCF80913303837FC3
:1048400097CF809134038C7F99CF8091330382FB83
:10485000992790F921E0922790FB82F990FB83F948
:1048600087CF80913403982F909591708E7F892BFC
:1048700090FB81F983CF90913303892F8F7B96FF33
:10488000806476CF0E94AD0890913303892F97FB07
:1048900087F980586DCF81E00E94CC0E8091330360
:1048A000909134030E945C0E0E94AD0880E0DF917D
:1048B000CF91089580E0F0CF90913303892F8F7EC0
:1048C00094FF806155CF90913303892F8E7F90FFA5
:1048D00081604ECF90913403892F877F93FF88604A
:1048E0004DCF81E0E4CFCF93DF93EB0186319C473E
:1048F00011F50E94540D9A81992399F08A7A91E0DA
:1049000009F490E090931803811109C089E20E9494
:104910002C0D0E94950D80E0DF91CF91089585E3E5
:10492000F6CF80911803811104C089E20E94340DF2
:10493000F0CF85E3FBCF81E0EFCF0F931F93CF93B1
:10494000DF93C42FD22FFC0182818823C9F04093CA
:104950001B030E94842890931A038093190380E21A
:104960008C0F883040F4C77081E001C0880FCA9571
:10497000EAF70E944306DF91CF911F910F910895AE
:1049800010911B03141332C08091190390911A03E4
:104990000E949C28883C910548F5C0E2CD0F1D1768
:1049A000B9F080E2810F883040F4177081E001C0D7
:1049B000880F1A95EAF70E944A06C83048F481E049
:1049C0009D2F977001C0880F9A95EAF70E944306C1
:1049D000802F0E943A06C83070F6D77081E001C07F
:1049E000880FDA95EAF70E944A06C5CF80E28C0F5D
:1049F000883008F6C77081E001C0880FCA95EAF7D1
:104A0000F2CF0F93DB0188519C4787309105A0F5C9
:104A1000FC01E354FE4C0C94243006E221EE41EEFE
:104A20006AE17CE7CD010E949D2480E00F9108950A
:104A300007E225EE45EE6BE17CE7F4CF06E221EEDE
:104A400040EE68E17CE7EECF07E225EE44EE69E157
:104A50007CE7E8CF06E221EE42EE6CE17CE7E2CFB4
:104A600007E225EE46EE6DE17CE7DCCF08E221E0CF
:104A700045EE6EE17CE7D6CF12968C91882319F033
:104A800010921B03D3CF81E0D1CF8EE1489B02C0AF
:104A90008150E1F7489BFECF0895589880E28A95AF
:104AA000F1F7589A0895FC013BE03A95F1F798E048
:104AB00020E080E031E040E14A95F1F7880F489B23
:104AC00002C08160232742E04A95F1F7000040E1EF
:104AD0004A95F1F7915079F790E19A95F1F799B1EC
:104AE00032E03A95F1F7000040E14A95F1F7917014
:104AF00092272081920F90830895A1E0B0E0E3E82F
:104B0000F5E20C94673019828C017C01E60EF11CF1
:104B10000E151F0541F481E09981911180E02196E5
:104B2000E6E00C9483300E944525CE0101960E9458
:104B30005325F80181938F01EBCF509A589A08952D
:104B40005098589AE89AE9E6F0E080818C7F80835B
:104B500008956150770B91E001C0990F6A95EAF7CB
:104B600020E031E0911108C0222391F0589A80E2B0
:104B70008A95F1F758980895492F482339F0589AA3
:104B8000232740E24A95F1F79695ECCF5898F9CF54
:104B90005898EDCFFF920F931F93CF93DF93EC01C3
:104BA0008C01060F111DC017D10729F4CDB7DEB750
:104BB000E5E00C948430F9900E944D2568E08F2D3B
:104BC0000E94A925F0CF1F920F920FB60F921124C9
:104BD0000F931F932F933F934F935F936F937F9305
:104BE0008F939F93AF93BF93EF93FF93CF93DF93F5
:104BF0000F92CDB7DEB719820E944525CE010196EE
:104C00000E945325082F069506950695282F229574
:104C10002570902F9570290F922F937026952695C9
:104C2000920F982797708981982B09F05CC0063005
:104C300008F059C080E18A95F1F7589A509A82E0BD
:104C40008A95F1F700C0589888E0089F80011124E8
:104C5000D801A95FBE4F1696ED91FC91179730973A
:104C6000A9F06091D0017091D10114962D913C91E1
:104C70001597260F371F11968D919C911297680FEB
:104C8000791F13964C9113978C910995F801E95F60
:104C9000FE4F6381662351F02091D0013091D10104
:104CA00084819581820F931F0E94CA250E944D2501
:104CB00080E18A95F1F758985098589A80E18A9542
:104CC000F1F7F801E95FFE4F6081662351F0209112
:104CD000D0013091D10181819281820F931F0E9476
:104CE0007D250E9445250F90DF91CF91FF91EF9197
:104CF000BF91AF919F918F917F916F915F914F91F4
:104D00003F912F911F910F910F900FBE0F901F9009
:104D100018950F931F93CF93DF93EC0106970CF038
:104D20004CC0F894509A589885E08A95F1F70000A5
:104D30009C2F969595708C2F8570980F892F837076
:104D40009695969523E0CC0FDD1F2A95E1F7980FF5
:104D50008E01092B0E944D2500C068E0802F0E9423
:104D6000A92580E18A95F1F75098589A489B1EC072
:104D700087E090E048991CC0FE01E95FFE4F638127
:104D80006623F9F02091D0013091D1018481958181
:104D9000820F931F0E947D25811113C0509A589A4B
:104DA0007894DF91CF911F910F91089500C0DECFCD
:104DB000019729F4509A589A789480E0F2CF00C075
:104DC000D9CF0E94452580E28A95F1F75898509AEC
:104DD00080E18A95F1F7C95FDE4F6881662351F063
:104DE0002091D0013091D10189819A81820F931F46
:104DF0000E94CA250E944D25789481E0D2CF9093DD
:104E0000FF018093FE010895909322038093210374
:104E100008950E94E613811103C080911C03089538
:104E2000E0912103F0912203309729F00190F08165
:104E3000E02D0995089580E00895E0912103F09117
:104E40002203309721F00280F381E02D0995089527
:104E5000E0912103F0912203309739F022E0DC0148
:104E60002C930480F581E02D09950895A3E0B0E02E
:104E7000ECE3F7E20C946B3020911F033091200398
:104E800028173907A1F09093200380931F03E09126
:104E90002103F0912203309751F023E029839B8373
:104EA0008A830680F781E02DCE010196099523962D
:104EB000E2E00C948730A3E0B0E0E1E6F7E20C9486
:104EC0006B3020911D0330911E0328173907A1F084
:104ED00090931E0380931D03E0912103F091220320
:104EE000309751F024E029839B838A830680F781E1
:104EF000E02DCE01019609952396E2E00C948730CF
:104F00009C012E5F3F4FAC01485F5F4F80E024174C
:104F1000350709F40895F90191919F019923B9F397
:104F20008F5FF5CF662349F0FC01329608962191F8
:104F3000261729F0E817F907D1F780E0089581E0F6
:104F400008959C01FC0132969FEF80E04191461745
:104F500051F09F3F19F4411101C0982F8F5F8630A7
:104F6000A9F79F3F09F40895290F311D97FD3A9540
:104F7000F90162830895FC01329608962191261367
:104F800003C0DF0111971C92E817F907B9F70895DC
:104F90000E94A12708950E94BB270895029626E04B
:104FA000FC0111922A95E9F7089546E050E00E942D
:104FB000FB3021E0892B09F420E0822F0895089529
:104FC0000E94DF270895811106C081E080932303AA
:104FD0000E94E027089582E0F9CF83E080932303C5
:104FE0000E94E02708950E94E327089581E08093BE
:104FF00023030E94E02708950E94F627089508954C
:1050000008950E9400280895089508950E94FF279A
:105010000895CF930E9404280E9465130E940528DA
:10502000C0E08C2F0E943E12811105C0CF5FCA30B4
:10503000C1F7CF91089581E0FCCF85B7806885BF27
:1050400085B7806885BF08951F921FB61F921124EF
:105050008F939F93AF93BF9380912403811113C0CB
:105060008091750390917603A0917703B0917803B6
:105070004196A11DB11D8093750390937603A09373
:105080007703B0937803BF91AF919F918F911F9059
:105090001FBE1F90189580917D03843031F10E94CE
:1050A000A3041092240388E190E020E40FB6F89462
:1050B000A895809360000FBE2093600083B7817F26
:1050C000846083BF83B7816083BF7894889583B7FA
:1050D0008E7F83BF0FB6F894A89580916000886199
:1050E00080936000109260000FBE08950E94AD088A
:1050F0000E94AB04089582E084BD93E095BD9AEFD1
:1051000097BD80936E0008952FB7F8948091750332
:1051100090917603A0917703B09178032FBF089503
:105120002FB7F8946091750370917603809177039F
:10513000909178032FBF08959C014FB7F894809108
:10514000750390917603A0917703B09178034FBFD8
:10515000821B930B0895CF92DF92EF92FF922FB7AD
:10516000F894C0907503D0907603E0907703F090A8
:1051700078032FBFA7019601261B370B480B590B4D
:10518000CA01B901FF90EF90DF90CF900895789415
:105190001F921FB61F9211248F939F93AF93BF93BB
:1051A0008091750390917603A0917703B091780375
:1051B0000196A11DB11D8093750390937603A09372
:1051C0007703B0937803BF91AF919F918F911F9018
:1051D0001FBE1F90189581E08093E00080E28093CD
:1051E000D8001092C9008FE19EE40197F1F700C04A
:1051F000000087E090EBDC018093860390938703A7
:10520000A0938803B093890388E19CE00FB6F894DB
:10521000A895809360000FBE90936000FFCF88E157
:105220009CE00FB6F894A895809360000FBE909311
:105230006000FFCF80912D0308959B01BA019091EA
:105240007D039430E9F48F708093E9009FEF8091A3
:10525000E800915085FD06C085ED8A95F1F70000C4
:105260009111F5CF8091E80085FF0AC050E040E041
:10527000C9010E94172B8091E8008E778093E80087
:10528000089543E050E0BC0182E00E941D2908958A
:1052900046E050E0BC0182E00E941D290895CF93B2
:1052A000DF93EC0148E050E0BC0181E00E941D2941
:1052B00088E0FE01A5E2B3E001900D928A95E1F746
:1052C000DF91CF91089580917C03811109C00E94E4
:1052D000A72C0E94042D8091E20084608093E2005C
:1052E000089510927C0308950E94F6270895609116
:1052F000790381E0611101C080E00E94ED270895EB
:1053000090917D0381E0943009F080E06091790311
:105310000E94F327089542E061EC81E00E94232C73
:1053200042E261EC82E00E94232C90917D0381E0B7
:10533000943009F080E0609179030E94E32708959A
:1053400080917F03833009F461C030F48130D1F162
:10535000823009F49EC008958A3009F48AC08B30E7
:1053600009F46FC0893009F050C080917E0381320A
:1053700009F04BC08091820390918303029708F05B
:1053800044C08091E800877F8093E8008091E80026
:1053900082FF37C09091F3008091F200029731F4C0
:1053A0008091F100813011F0863021F48091F1007C
:1053B00080932D038091E8008B778093E8000E9412
:1053C000572C23C080917E03813AF9F48091E80044
:1053D000877F8093E8008091820390918303892BDB
:1053E00061F468E085E293E070E00E94662B8091B2
:1053F000E8008B778093E800089560E090E080E01B
:10540000F3CF80917D038111C1CF089580917E03F8
:10541000813AD9F78091820390918303892BA9F770
:105420008091E800877F8093E8008091E80080FF0A
:10543000FCCF809152018093F1008091E8008E773B
:10544000BCCF80917E03813201F7809182039091DD
:105450008303892BD1F68091E800877F8093E80051
:105460000E94572C80918003809352010E94AD08C6
:10547000089580917E03813241F68091E800877F14
:105480008093E8000E94572C8091810380932E0323
:10549000089580917E03813A09F0B7CF8091E800AA
:1054A000877F8093E8008091E80080FFFCCF8091A7
:1054B0002E03C1CF84B7877F84BF0FB6F894A89519
:1054C00080916000886180936000109260000FBE40
:1054D00080E890E00FB6F8948093610090936100AB
:1054E0000FBE0E94FC2708950E94A72C0E94042D45
:1054F000E2EEF0E080818460808378940E94832FC4
:1055000008958AE491E00E940427089580917D0324
:10551000853031F480917D03853019F00E94762822
:1055200008950E944B2880917B03882399F30E9461
:105530000928882379F30E94012B0E94AD08EACF45
:1055400008959A0140918403509185030E94A92AED
:105550000895492F55274330510519F168F441301A
:10556000510509F444C04230510509F445C090E0AA
:1055700080E050E040E025C04132510549F142321F
:105580005105A9F780E490E042E956E06115710504
:10559000C1F08BE790E047E156E06130710589F09A
:1055A000E6CF99278130910581F0009729F0029785
:1055B000F1F6E6E9F5E002C0E6ECF5E0849190E072
:1055C000AF01F901518340830895E6EBF5E0F6CF92
:1055D00089E090E04CED55E06115710591F389E0AB
:1055E00090E045EF55E06130710559F3C0CF82E19D
:1055F00090E045E056E0E5CF8BE390E04AEC55E0E3
:10560000E0CF80E189BD82E189BD09B400FEFDCF14
:105610008091D8008F7D8093D8008091E0008260D7
:105620008093E0008091E00081FDFCCF0895AF926F
:10563000BF92CF92DF92FF920F931F93CF93DF938E
:105640006C01EB018A010E94762CF82E811123C097
:105650000115110539F0F80180819181C81BD90B22
:10566000C80ED91EB12CA12C2097A9F08091E8007A
:1056700085FD22C08091E8008E778093E8000115B7
:105680001105A1F0F80180819181A80EB91EB182A7
:10569000A08285E0F82E8F2DDF91CF911F910F9181
:1056A000FF90DF90CF90BF90AF9008950E94762C2E
:1056B0008823D1F2F82EEFCFF60181916F0180930C
:1056C000F1002197FFEFAF1ABF0ACECFFC01809106
:1056D00084039091850386179707A0F061157105E3
:1056E00029F49091E8009E779093E80090E061158E
:1056F000710551F4911108C08091E80082FF34C017
:1057000080E00895BC01F2CF80917D038823C1F130
:105710008530C1F18091E80083FD30C08091E800C0
:1057200082FDEACF8091E80080FFE1CF8091F30015
:105730002091F200382F6115710519F028303105DC
:1057400058F091E02830310509F090E02091E80010
:105750002E772093E800CBCF81918093F1006150A8
:1057600071092F5F3F4FE7CF80917D03882341F080
:10577000853041F08091E80083FFBECF81E008953D
:1057800082E0089583E00895FC0180918403909164
:10579000850386179707A0F06115710529F480919C
:1057A000E8008E778093E80090E06115710551F470
:1057B000911108C08091E80082FF35C080E0089513
:1057C000BC01F2CF80917D038823C9F18530C9F1F6
:1057D0008091E80083FD31C08091E80082FDEACF2E
:1057E0008091E80080FFE1CF8091F3002091F200EA
:1057F000382F6115710519F02830310558F091E006
:105800002830310509F090E08091E8008E77809390
:10581000E800CBCF84918093F100319661507109FB
:105820002F5F3F4FE6CF80917D03882341F0853085
:1058300041F08091E80083FFBDCF81E0089582E0D0
:10584000089583E00895982F973028F08F70809303
:10585000E90081E008959093E900242F762F50E02D
:10586000981731F07091EC002091ED005091F0000C
:1058700021FD02C09F5FE8CF3091EB003E7F309367
:10588000EB003091ED003D7F3093ED003091EB0067
:1058900031603093EB007093EC002093ED00509357
:1058A000F0002091EE0027FDE5CF80E00895809183
:1058B0007E0387FF13C08091E80082FF06C08091BD
:1058C000E8008B778093E80004C080917D0381110C
:1058D000F2CF089580917D038823D9F38091E80069
:1058E00080FFF8CF8091E8008E77ECCF2091E40024
:1058F0003091E50095E6A9012091EC00822F81709E
:1059000020FF06C08091E80080FF06C080E0089577
:105910002091E80022FD1AC080917D03882389F040
:10592000853089F08091EB0085FD0FC02091E40067
:105930003091E50042175307F9F29150E1F684E007
:10594000089582E0089583E0089581E008950E941B
:10595000162D0E941E2DE0EEF0E080818160808394
:10596000E8EDF0E080818F77808319BCA7EDB0E08F
:105970008C918E7F8C9380818F7E808310927C03AC
:1059800008950F931F93CF93DF930E94162D0E94CB
:105990001E2DC8EDD0E088818F778883888180684C
:1059A000888388818F7D888319BC10927D03109233
:1059B000790310927B0310927A0300EE10E0F80155
:1059C00080818B7F808388818160888342E060E072
:1059D00080E00E94232CE1EEF0E080818E7F8083C6
:1059E000E2EEF0E080818160808380818860808346
:1059F000F80180818E7F8083888180618883DF9138
:105A0000CF911F910F910895E8EDF0E080818F7E96
:105A10008083E7EDF0E080818160808384E082BF55
:105A200081E080937C030E94C12C0895E8EDF0E0B2
:105A300080818E7F80831092E20008951092DA00B8
:105A40001092E10008951F920F920FB60F92112449
:105A50002F933F934F935F936F937F938F939F9376
:105A6000AF93BF93EF93FF938091E10082FF0BC050
:105A70008091E20082FF07C08091E1008B7F8093DC
:105A8000E1000E94822F8091DA0080FF19C080918E
:105A9000D80080FF15C08091DA008E7F8093DA00F5
:105AA0008091D90080FF96C080E189BD82E189BDE7
:105AB00009B400FEFDCF81E080937D030E9463293D
:105AC0008091E10080FF19C08091E20080FF15C045
:105AD0008091E2008E7F8093E2008091E2008061FD
